:1000000005308A00292D0000FF00030E8301A100A6
:100010000A08A0008A010408A2007708A300780853
:10002000A4007908A5007A08A600831383128B1E0A
:100030001B280B192C28220884002308F700240809
:10004000F8002508F9002608FA0020088A00210E89
:100050008300FF0E7F0E09008A110A1276280A100B
:100060008A100A11820728340C34013406346008DF
:10007000E7006408E706E71F422803110310E01BAE
:10008000031475286008E7006308E8005F08E802C9
:1000900003195028E71F75280308013A83007528C3
:1000A0006408E8006008E80203195C28E71F752867
:1000B0000308013A830075286508E8006108E80232
:1000C00003196828E71F75280308013A830075287B
:1000D0006608E8006208E80203197428E71F75281B
:1000E0000308013A8300752803100800A70A0319C2
:1000F000A80AA808031D802827083B3C0318632A88
:100100001F151F1981281E08FA0083161E08831266
:10011000DF007A08E0008E30F7006008F8005F0822
:10012000F900FA01F808031D9F287908F800F90181
:100130000830F702F808031D9F28F701A7280310CD
:10014000F81BA628F90DF80DF7039F28F813523075
:10015000E2002730E1002030E0007730DF007A084D
:10016000E6007908E5007808E4007708E3005F0816
:1001700003192729E700630803192729E70703184C
:10018000C8287F30E702031C272903192729CC2818
:100190008130E707031827296708F700F801F901FC
:1001A000FA016008EB00EB176108EA006208E90059
:1001B0001830E700E801691CF5286608FA07031CF7
:1001C000E728F90A031DE728F80A0319E817650864
:1001D000F907031CEE28F80A0319E8176408E10080
:1001E000E1176108F8070318E817E80DF80CF90C97
:1001F000FA0CEB0CEA0CE90C0310E70BDA280130DF
:10020000F70703182729F81B0C29EB0DFA0DF90D38
:10021000F80DF70303192729EB1F1D29FA0A031DFF
:100220001D29F90A031D1D29F80A031D1D29F80CB3
:10023000F90CFA0CF70A031927296008E80064088A
:10024000E806E81F2529F8172B29F8132B29F701B1
:10025000F801F901FA017A08DE007908DD00780872
:10026000DC007708DB00E201E1011030E0008130C2
:10027000DF005E08E6005D08E5005C08E4005B085E
:10028000E3003720031C512983168601831286015F
:1002900030300C1E492999000A300C1E4D29990056
:1002A000612AE201E101E0018130DF005E08E60041
:1002B0005D08E5005C08E4005B08E3003720031CF0
:1002C0006F298316860101308312860031300C1E9F
:1002D000672999000A300C1E6B299900612AE201F6
:1002E000E1016030E0008030DF005E08E6005D087C
:1002F000E5005C08E4005B08E3003720031C8E295E
:100300008316860102308312860032300C1E862945
:1003100099000A300C1E8A299900612AE201E10144
:100320004030E0008030DF005E08E6005D08E50058
:100330005C08E4005B08E3003720031CAD2983164A
:10034000860103308312860033300C1EA5299900E4
:100350000A300C1EA9299900612AE201E10120302E
:10036000E0008030DF005E08E6005D08E5005C0824
:10037000E4005B08E3003720031CCC2983168601C8
:1003800004308312860034300C1EC42999000A30D0
:100390000C1EC8299900612AE201E101E0018030C8
:1003A000DF005E08E6005D08E5005C08E4005B082D
:1003B000E3003720031CEA298316860105308312E7
:1003C000860035300C1EE22999000A300C1EE62901
:1003D0009900612AE201E1014030E0007F30DF0056
:1003E0005E08E6005D08E5005C08E4005B08E300E9
:1003F0003720031C092A83168601063083128600E3
:1004000036300C1E012A99000A300C1E052A99006C
:10041000612AE201E101E0017F30DF005E08E600D1
:100420005D08E5005C08E4005B08E3003720031C7E
:10043000272A8316860107308312860037300C1E68
:100440001F2A99000A300C1E232A9900612AE20112
:10045000E101E0017E30DF005E08E6005D08E500B6
:100460005C08E4005B08E3003720031C452A831680
:10047000860108308312860038300C1E3D2A990010
:100480000A300C1E412A9900612AE201E101E001D3
:10049000DF015E08E6005D08E5005C08E4005B083B
:1004A000E3003720031C612A83168601093083127A
:1004B000860039300C1E5A2A99000A300C1E5E2A1A
:1004C0009900A801A7010B118A110A121B280C0020
:1004D0004537E3346537E432A0366F3A6F390A00A6
:1004E0000C004138E1336110ED37F43772000C0035
:1004F0004537743961326110EE372005F630EC343F
:10050000E430A1100000D0306F3661104536693DEF
:100510006131653A6805D331683D2E10C330733AB6
:100520006936EC3700010C002F308400831300087B
:100530000319A72A0630F800F701F70B9D2AF80BDC
:100540009C2A7B30F700F70BA32A800B9A2A08001D
:100550003618AC2A0812AD2A081683160812831220
:10056000B618B42A8812B52A881683168812831200
:100570003619BC2A0813BD2A0817831608138312DC
:10058000B619C42A8813C52A881783168813000051
:1005900083120814831608100330F700F70BCE2AD5
:1005A000831208108316081083120800B7018316FF
:1005B000081600308312081A0130B7048316881613
:1005C00000308312881A0130F7000310F70D770806
:1005D000B7048316081700308312081B0130F70098
:1005E000F70DF70DFC30F7057708B7048316881769
:1005F00000308312881B0130F700F70DF70DF70D5F
:10060000F830F7057708B7043708F80008008810B5
:10061000831688100816881608178817831208157D
:1006200083160811000083120814831608100000B6
:100630008312D6227808B60008108316081000002E
:100640008312081483160810252B262B0000831212
:10065000D6227808B50008108316081008128812F0
:10066000081388138312360EF700F030F705770869
:100670003504F8007808B500B51F402B83160A2B07
:10068000B308031D452B8810462B88148316881049
:10069000000083120811831608110000831208104D
:1006A000831608108312340EB5000F30B5053508D7
:1006B000B600A82234080F39B500B600A8220800F9
:1006C000831608128812081388130810881008115E
:1006D000831288108316881083120811831608115C
:1006E00083120810831608100F308312AF00942273
:1006F0000130AA002A08033C031C862B0330B600F5
:10070000A8220530AF009422AA0A7A2B0230B60044
:10071000A822AA012A08033C031C972B2A082F2091
:10072000AB00B3012B08B4000723AA0A8A2B8A1155
:100730000A125D2D300B9D2BA02B4030B100A12B58
:10074000B10101302F02B10731088038B200B30186
:100750003208B400072308002E080C3A0319B72BFF
:10076000063A0319BF2B023A0319C52BCA2BB30152
:100770000130B40007230230AF009422D02B0130A7
:10078000AF000230B0009A23D02BB3011030B40078
:100790000723D02B0130B3002E08B4000723D02B41
:1007A0000800831603178C170C1400000000831236
:1007B0000C087F390319152C0313AB0003170D0820
:1007C0000313AC0003170F080313AD002B08AE0092
:1007D000AC232C0803178D0003132D0803178F007B
:1007E00083168C170C140000000083120C0D0E0DE4
:1007F0007F390319152C0313AB0003170D080313DE
:10080000AC0003170F080313AD002B08AE00AC2398
:100810002C0803178D0003132D0803178F008D0A72
:1008200003198F0A0313D12B031703130800AC011C
:100830006530BE006E30BF006330C0006930C1005B
:100840006530C2006E30C3006430C4006530C5003E
:100850002030C6006D30C7006F30C8007430C9004A
:100860006F30CA007230CB00CC016130CD007030E7
:10087000CE006130CF006730D0006130D100203031
:10088000D2006D30D3006F30D4007430D5006F309B
:10089000D6007230D700D8012F3084008313840330
:1008A000840A8C1E512C1A0880000D300002031D92
:1008B000502C80012F308400831380080319732C7F
:1008C000DA010408D9005A10831B5A1400080C1EC0
:1008D000672C99005908840083135A188317840AD7
:1008E0000319850A5D2C0A300C1E742C99002F30D8
:1008F0002C07840083130008AE00AC0AAE08031D69
:10090000772C01302C02AD002D080A3C0318BB2CBB
:100910002D080E3C031CB82CAC012C082D02031C26
:10092000B72C2F302C07840083130008D9003E30E9
:100930002C078400831300085902031DA22C0130E8
:10094000AB00B52C2F302C07840083130008D9008E
:100950004D302C078400831300085902031DB22C6C
:10096000AB01B52C0230AB00B72CAC0A8D2CBA2CE5
:100970000230AB00BD2C0230AB002B08F800780829
:10098000AA002A08013A0319CC2C013A0319EC2CCD
:10099000023A03190C2D262D2910290883168700E9
:1009A00083120714673003178D0002308F00031382
:1009B000D1230130AF00B0009A23683003178D00B7
:1009C00002308F000313D1230230AB00FA30AF00A6
:1009D0009422AB0BE62C262D2910290883168700BC
:1009E00083120710703003178D0002308F0003133D
:1009F000D1230130AF00B0009A23713003178D006E
:100A000002308F000313D1230230AB00FA30AF0065
:100A10009422AB0B062D262D773003178D00023064
:100A20008F000313D1230130AF00B0009A23783038
:100A300003178D0002308F000313D1230230AB0067
:100A4000FA30AF009422AB0B202D262D8A110A120A
:100A5000772D840183131F3083058130831699001D
:100A6000A6309800903083129800A801A701831641
:100A70001F149F141F159F11FF308312A9008316A6
:100A80001F109F101F119F1183121F179F1783168E
:100A90009F1783121F140030F8001F08C73978040D
:100AA0009F00810183160108C03907388100640066
:100AB00083128B16C0308B04602B0130AF00B00066
:100AC0009A23833003178D0002308F000313D12344
:100AD0000C30AA00FA30AF009422AA0B6A2D933092
:100AE00003178D0002308F000313D123172C762DAE
:020AF0006300A1
:023E00000800B8
:02400E00723FFF
:00000001FF
;PIC16F877
;CRC=EB10  CREATED="07-ago.-20 12:52"
